{
  "contractName": "FloodFund",
  "abi": [
    {
      "inputs": [
        {
          "internalType": "string",
          "name": "_name",
          "type": "string"
        },
        {
          "internalType": "string",
          "name": "_mobileNumber",
          "type": "string"
        }
      ],
      "name": "registerDonor",
      "outputs": [],
      "stateMutability": "nonpayable",
      "type": "function"
    },
    {
      "inputs": [
        {
          "internalType": "string",
          "name": "_fundraiserZone",
          "type": "string"
        },
        {
          "internalType": "string",
          "name": "_mobileNumber",
          "type": "string"
        }
      ],
      "name": "donate",
      "outputs": [],
      "stateMutability": "payable",
      "type": "function",
      "payable": true
    },
    {
      "inputs": [],
      "name": "showTotal",
      "outputs": [
        {
          "internalType": "string",
          "name": "",
          "type": "string"
        },
        {
          "internalType": "uint256",
          "name": "",
          "type": "uint256"
        },
        {
          "internalType": "string",
          "name": "",
          "type": "string"
        },
        {
          "internalType": "uint256",
          "name": "",
          "type": "uint256"
        },
        {
          "internalType": "string",
          "name": "",
          "type": "string"
        },
        {
          "internalType": "uint256",
          "name": "",
          "type": "uint256"
        },
        {
          "internalType": "string",
          "name": "",
          "type": "string"
        },
        {
          "internalType": "uint256",
          "name": "",
          "type": "uint256"
        }
      ],
      "stateMutability": "view",
      "type": "function",
      "constant": true
    },
    {
      "inputs": [
        {
          "internalType": "address",
          "name": "_donorAddress",
          "type": "address"
        }
      ],
      "name": "getDonorInfoByAddress",
      "outputs": [
        {
          "internalType": "string",
          "name": "",
          "type": "string"
        },
        {
          "internalType": "string",
          "name": "",
          "type": "string"
        }
      ],
      "stateMutability": "view",
      "type": "function",
      "constant": true
    }
  ],
  "bytecode": "0x6080604052733808011511c2c8272d77469448be6d9c1ec2497d6000806101000a81548173ffffffffffffffffffffffffffffffffffffffff021916908373ffffffffffffffffffffffffffffffffffffffff160217905550730e02c5bce77031f96d1268df8cd8a9edc6d640f2600160006101000a81548173ffffffffffffffffffffffffffffffffffffffff021916908373ffffffffffffffffffffffffffffffffffffffff16021790555073a434d6ca6a7b99ac7adff6bbad8a7c6c77cce4a0600260006101000a81548173ffffffffffffffffffffffffffffffffffffffff021916908373ffffffffffffffffffffffffffffffffffffffff16021790555034801561010e57600080fd5b5061189a8061011e6000396000f3fe60806040526004361061003f5760003560e01c80630ad98d71146100445780631653441c14610076578063a577589e14610092578063c4691929146100bb575b600080fd5b34801561005057600080fd5b506100596100f9565b60405161006d989796959493929190610c90565b60405180910390f35b610090600480360381019061008b9190610e73565b610372565b005b34801561009e57600080fd5b506100b960048036038101906100b49190610e73565b610701565b005b3480156100c757600080fd5b506100e260048036038101906100dd9190610f49565b610953565b6040516100f0929190610f76565b60405180910390f35b606060006060600060606000606060008060009054906101000a900473ffffffffffffffffffffffffffffffffffffffff1673ffffffffffffffffffffffffffffffffffffffff1631600160009054906101000a900473ffffffffffffffffffffffffffffffffffffffff1673ffffffffffffffffffffffffffffffffffffffff1631600260009054906101000a900473ffffffffffffffffffffffffffffffffffffffff1673ffffffffffffffffffffffffffffffffffffffff1631600260009054906101000a900473ffffffffffffffffffffffffffffffffffffffff1673ffffffffffffffffffffffffffffffffffffffff1631600160009054906101000a900473ffffffffffffffffffffffffffffffffffffffff1673ffffffffffffffffffffffffffffffffffffffff163160008054906101000a900473ffffffffffffffffffffffffffffffffffffffff1673ffffffffffffffffffffffffffffffffffffffff163161026c9190610fdc565b6102769190610fdc565b6040518060400160405280600681526020017f53796c6865740000000000000000000000000000000000000000000000000000815250939291906040518060400160405280600881526020017f437467536f7574680000000000000000000000000000000000000000000000008152509291906040518060400160405280600881526020017f4374674e6f72746800000000000000000000000000000000000000000000000081525091906040518060400160405280600581526020017f546f74616c00000000000000000000000000000000000000000000000000000081525090975097509750975097509750975097509091929394959697565b60008151036103b6576040517f08c379a00000000000000000000000000000000000000000000000000000000081526004016103ad9061105c565b60405180910390fd5b806040516020016103c791906110b8565b60405160208183030381529060405280519060200120600360003373ffffffffffffffffffffffffffffffffffffffff1673ffffffffffffffffffffffffffffffffffffffff16815260200190815260200160002060010160405160200161042f91906111c7565b6040516020818303038152906040528051906020012014610485576040517f08c379a000000000000000000000000000000000000000000000000000000000815260040161047c90611250565b60405180910390fd5b604051602001610494906112bc565b60405160208183030381529060405280519060200120826040516020016104bb91906110b8565b60405160208183030381529060405280519060200120036105425760008054906101000a900473ffffffffffffffffffffffffffffffffffffffff1673ffffffffffffffffffffffffffffffffffffffff166108fc349081150290604051600060405180830381858888f1935050505015801561053c573d6000803e3d6000fd5b506106fd565b6040516020016105519061131d565b604051602081830303815290604052805190602001208260405160200161057891906110b8565b604051602081830303815290604052805190602001200361060157600160009054906101000a900473ffffffffffffffffffffffffffffffffffffffff1673ffffffffffffffffffffffffffffffffffffffff166108fc349081150290604051600060405180830381858888f193505050501580156105fb573d6000803e3d6000fd5b506106fc565b6040516020016106109061137e565b604051602081830303815290604052805190602001208260405160200161063791906110b8565b60405160208183030381529060405280519060200120036106c057600260009054906101000a900473ffffffffffffffffffffffffffffffffffffffff1673ffffffffffffffffffffffffffffffffffffffff166108fc349081150290604051600060405180830381858888f193505050501580156106ba573d6000803e3d6000fd5b506106fb565b6040517f08c379a00000000000000000000000000000000000000000000000000000000081526004016106f2906113df565b60405180910390fd5b5b5b5050565b60008054906101000a900473ffffffffffffffffffffffffffffffffffffffff1673ffffffffffffffffffffffffffffffffffffffff163373ffffffffffffffffffffffffffffffffffffffff16141580156107ab5750600160009054906101000a900473ffffffffffffffffffffffffffffffffffffffff1673ffffffffffffffffffffffffffffffffffffffff163373ffffffffffffffffffffffffffffffffffffffff1614155b80156108055750600260009054906101000a900473ffffffffffffffffffffffffffffffffffffffff1673ffffffffffffffffffffffffffffffffffffffff163373ffffffffffffffffffffffffffffffffffffffff1614155b610844576040517f08c379a000000000000000000000000000000000000000000000000000000000815260040161083b90611497565b60405180910390fd5b6000825103610888576040517f08c379a000000000000000000000000000000000000000000000000000000000815260040161087f90611503565b60405180910390fd5b60008151036108cc576040517f08c379a00000000000000000000000000000000000000000000000000000000081526004016108c39061156f565b60405180910390fd5b604051806040016040528083815260200182815250600360003373ffffffffffffffffffffffffffffffffffffffff1673ffffffffffffffffffffffffffffffffffffffff16815260200190815260200160002060008201518160000190816109359190611726565b50602082015181600101908161094b9190611726565b509050505050565b6060806000600360008573ffffffffffffffffffffffffffffffffffffffff1673ffffffffffffffffffffffffffffffffffffffff16815260200190815260200160002060000180546109a5906110fe565b9050141580610a0357506000600360008573ffffffffffffffffffffffffffffffffffffffff1673ffffffffffffffffffffffffffffffffffffffff16815260200190815260200160002060010180546109fe906110fe565b905014155b610a42576040517f08c379a0000000000000000000000000000000000000000000000000000000008152600401610a3990611844565b60405180910390fd5b600360008473ffffffffffffffffffffffffffffffffffffffff1673ffffffffffffffffffffffffffffffffffffffff168152602001908152602001600020600001600360008573ffffffffffffffffffffffffffffffffffffffff1673ffffffffffffffffffffffffffffffffffffffff168152602001908152602001600020600101818054610ad2906110fe565b80601f0160208091040260200160405190810160405280929190818152602001828054610afe906110fe565b8015610b4b5780601f10610b2057610100808354040283529160200191610b4b565b820191906000526020600020905b815481529060010190602001808311610b2e57829003601f168201915b50505050509150808054610b5e906110fe565b80601f0160208091040260200160405190810160405280929190818152602001828054610b8a906110fe565b8015610bd75780601f10610bac57610100808354040283529160200191610bd7565b820191906000526020600020905b815481529060010190602001808311610bba57829003601f168201915b5050505050905091509150915091565b600081519050919050565b600082825260208201905092915050565b60005b83811015610c21578082015181840152602081019050610c06565b60008484015250505050565b6000601f19601f8301169050919050565b6000610c4982610be7565b610c538185610bf2565b9350610c63818560208601610c03565b610c6c81610c2d565b840191505092915050565b6000819050919050565b610c8a81610c77565b82525050565b6000610100820190508181036000830152610cab818b610c3e565b9050610cba602083018a610c81565b8181036040830152610ccc8189610c3e565b9050610cdb6060830188610c81565b8181036080830152610ced8187610c3e565b9050610cfc60a0830186610c81565b81810360c0830152610d0e8185610c3e565b9050610d1d60e0830184610c81565b9998505050505050505050565b6000604051905090565b600080fd5b600080fd5b600080fd5b600080fd5b7f4e487b7100000000000000000000000000000000000000000000000000000000600052604160045260246000fd5b610d8082610c2d565b810181811067ffffffffffffffff82111715610d9f57610d9e610d48565b5b80604052505050565b6000610db2610d2a565b9050610dbe8282610d77565b919050565b600067ffffffffffffffff821115610dde57610ddd610d48565b5b610de782610c2d565b9050602081019050919050565b82818337600083830152505050565b6000610e16610e1184610dc3565b610da8565b905082815260208101848484011115610e3257610e31610d43565b5b610e3d848285610df4565b509392505050565b600082601f830112610e5a57610e59610d3e565b5b8135610e6a848260208601610e03565b91505092915050565b60008060408385031215610e8a57610e89610d34565b5b600083013567ffffffffffffffff811115610ea857610ea7610d39565b5b610eb485828601610e45565b925050602083013567ffffffffffffffff811115610ed557610ed4610d39565b5b610ee185828601610e45565b9150509250929050565b600073ffffffffffffffffffffffffffffffffffffffff82169050919050565b6000610f1682610eeb565b9050919050565b610f2681610f0b565b8114610f3157600080fd5b50565b600081359050610f4381610f1d565b92915050565b600060208284031215610f5f57610f5e610d34565b5b6000610f6d84828501610f34565b91505092915050565b60006040820190508181036000830152610f908185610c3e565b90508181036020830152610fa48184610c3e565b90509392505050565b7f4e487b7100000000000000000000000000000000000000000000000000000000600052601160045260246000fd5b6000610fe782610c77565b9150610ff283610c77565b925082820190508082111561100a57611009610fad565b5b92915050565b7f506c656173652070726f7669646520746865206d6f62696c65206e756d626572600082015250565b6000611046602083610bf2565b915061105182611010565b602082019050919050565b6000602082019050818103600083015261107581611039565b9050919050565b600081905092915050565b600061109282610be7565b61109c818561107c565b93506110ac818560208601610c03565b80840191505092915050565b60006110c48284611087565b915081905092915050565b7f4e487b7100000000000000000000000000000000000000000000000000000000600052602260045260246000fd5b6000600282049050600182168061111657607f821691505b602082108103611129576111286110cf565b5b50919050565b60008190508160005260206000209050919050565b60008154611151816110fe565b61115b818661107c565b94506001821660008114611176576001811461118b576111be565b60ff19831686528115158202860193506111be565b6111948561112f565b60005b838110156111b657815481890152600182019150602081019050611197565b838801955050505b50505092915050565b60006111d38284611144565b915081905092915050565b7f4d6f62696c65204e756d626572206e6f74206d617463686564206f72206e6f7460008201527f20726567697374657265642e0000000000000000000000000000000000000000602082015250565b600061123a602c83610bf2565b9150611245826111de565b604082019050919050565b600060208201905081810360008301526112698161122d565b9050919050565b7f73796c6865740000000000000000000000000000000000000000000000000000600082015250565b60006112a660068361107c565b91506112b182611270565b600682019050919050565b60006112c782611299565b9150819050919050565b7f636869747461676f6e672d736f75746800000000000000000000000000000000600082015250565b600061130760108361107c565b9150611312826112d1565b601082019050919050565b6000611328826112fa565b9150819050919050565b7f636869747461676f6e672d6e6f72746800000000000000000000000000000000600082015250565b600061136860108361107c565b915061137382611332565b601082019050919050565b60006113898261135b565b9150819050919050565b7f556e617661696c61626c65207a6f6e6500000000000000000000000000000000600082015250565b60006113c9601083610bf2565b91506113d482611393565b602082019050919050565b600060208201905081810360008301526113f8816113bc565b9050919050565b7f596f7572206163636f756e7420697320612066756e647261697365722061636360008201527f6f756e742e20506c65617365207573652061206e6f6e2d66756e64726569736560208201527f72206163636f756e742e00000000000000000000000000000000000000000000604082015250565b6000611481604a83610bf2565b915061148c826113ff565b606082019050919050565b600060208201905081810360008301526114b081611474565b9050919050565b7f506c656173652070726f76696465206e616d652e000000000000000000000000600082015250565b60006114ed601483610bf2565b91506114f8826114b7565b602082019050919050565b6000602082019050818103600083015261151c816114e0565b9050919050565b7f506c656173652070726f76696465206d6f62696c65206e756d6265722e000000600082015250565b6000611559601d83610bf2565b915061156482611523565b602082019050919050565b600060208201905081810360008301526115888161154c565b9050919050565b60006020601f8301049050919050565b600082821b905092915050565b6000600883026115dc7fffffffffffffffffffffffffffffffffffffffffffffffffffffffffffffffff8261159f565b6115e6868361159f565b95508019841693508086168417925050509392505050565b6000819050919050565b600061162361161e61161984610c77565b6115fe565b610c77565b9050919050565b6000819050919050565b61163d83611608565b6116516116498261162a565b8484546115ac565b825550505050565b600090565b611666611659565b611671818484611634565b505050565b5b818110156116955761168a60008261165e565b600181019050611677565b5050565b601f8211156116da576116ab8161112f565b6116b48461158f565b810160208510156116c3578190505b6116d76116cf8561158f565b830182611676565b50505b505050565b600082821c905092915050565b60006116fd600019846008026116df565b1980831691505092915050565b600061171683836116ec565b9150826002028217905092915050565b61172f82610be7565b67ffffffffffffffff81111561174857611747610d48565b5b61175282546110fe565b61175d828285611699565b600060209050601f831160018114611790576000841561177e578287015190505b611788858261170a565b8655506117f0565b601f19841661179e8661112f565b60005b828110156117c6578489015182556001820191506020850194506020810190506117a1565b868310156117e357848901516117df601f8916826116ec565b8355505b6001600288020188555050505b505050505050565b7f41646472657373206e6f74207265676973746572656400000000000000000000600082015250565b600061182e601683610bf2565b9150611839826117f8565b602082019050919050565b6000602082019050818103600083015261185d81611821565b905091905056fea2646970667358221220e0c8dc61284dc648420cee92b36f06b1f0136fc9cf4923378374d04285751c8064736f6c63430008100033",
  "immutableReferences": {},
  "source": "// SPDX-License-Identifier: MIT\npragma solidity ^0.8.0;\n\ncontract FloodFund {\n    // replace the addresses from your REMIX IDE | here public can also be used\n    address payable private fundraiserSylhet = payable(0x3808011511c2C8272D77469448bE6D9C1Ec2497D);\n    address payable private fundraiserCtgNorth = payable(0x0e02C5BCe77031f96d1268df8cD8A9Edc6d640F2);\n    address payable private fundraiserCtgSouth = payable(0xA434d6ca6a7B99Ac7AdfF6BbAd8A7c6c77Cce4A0);\n\n    struct Donor {\n        string name;\n        string mobileNumber;\n    }\n\n    struct Balance{\n        uint256 sylhet;\n        uint256 ctgNorth;\n        uint256 ctgSouth;\n        uint256 total;\n    }\n\n    mapping ( address => Donor ) donorList;\n\n    // if false, the function will revert and the message in string mentioned will be thrown | if true the function continues to execute \n    modifier exceptFundreiser() {\n        require(\n            msg.sender != fundraiserSylhet &&\n            msg.sender != fundraiserCtgNorth &&\n            msg.sender != fundraiserCtgSouth,\n            \"Your account is a fundraiser account. Please use a non-fundreiser account.\"\n        );\n        _;\n    }\n\n    // registering the donor | the the beginning of the function call the exceptFundreiser will be executed to check its condition\n     function registerDonor(string memory _name, string memory _mobileNumber) public exceptFundreiser {\n        require(bytes(_name).length != 0, \"Please provide name.\");\n        require(bytes(_mobileNumber).length != 0, \"Please provide mobile number.\");\n        donorList[msg.sender] = Donor(_name, _mobileNumber);\n    }\n\n    // donate function | The require will check if the condition is false, the function will revert and the string message will be thrown, else continue\n    function donate(string memory _fundraiserZone, string memory _mobileNumber) public payable {\n        require(bytes(_mobileNumber).length != 0, \"Please provide the mobile number\" );\n        require(keccak256(abi.encodePacked(donorList[msg.sender].mobileNumber)) == keccak256(abi.encodePacked(_mobileNumber)), \"Mobile Number not matched or not registered.\");\n\n\n        if (keccak256(abi.encodePacked(_fundraiserZone)) == keccak256(abi.encodePacked(\"sylhet\"))) {\n            fundraiserSylhet.transfer(msg.value);\n        } \n        else if (keccak256(abi.encodePacked(_fundraiserZone)) == keccak256(abi.encodePacked(\"chittagong-south\"))) {\n            fundraiserCtgNorth.transfer(msg.value);\n        } \n        else if (keccak256(abi.encodePacked(_fundraiserZone)) == keccak256(abi.encodePacked(\"chittagong-north\"))) {\n            fundraiserCtgSouth.transfer(msg.value);\n        } \n        else{\n            revert(\"Unavailable zone\");\n        }\n    }\n\n    // getting all of the individual and total balance  \n    function showTotal() public view returns (string memory, uint, string memory, uint, string memory, uint, string memory, uint) {\n        // Divided by one ether to make the output a little bit more visible.\n        return (\"Sylhet\", fundraiserSylhet.balance, \"CtgSouth\", fundraiserCtgNorth.balance, \"CtgNorth\", fundraiserCtgSouth.balance, \"Total\", (fundraiserSylhet.balance + fundraiserCtgNorth.balance + fundraiserCtgSouth.balance));\n    }\n   \n    // getting donor info\n    function getDonorInfoByAddress(address _donorAddress) public view returns (string memory, string memory) {\n        require(bytes(donorList[_donorAddress].name).length != 0 || bytes(donorList[_donorAddress].mobileNumber).length != 0, \"Address not registered\" );\n        //  the above require here is optional and it is to check if the address is registered or not. but it is, optional \n        return (donorList[_donorAddress].name, donorList[_donorAddress].mobileNumber);\n    }\n\n}",
  "sourcePath": "/home/bhuban/elections/contracts/FloodFund.sol",
  "compiler": {
    "name": "solc",
    "version": "0.8.16+commit.07a7930e.Emscripten.clang"
  },
  "schemaVersion": "3.4.16",
  "updatedAt": "2024-09-17T09:48:22.690Z",
  "networkType": "ethereum",
  "devdoc": {
    "kind": "dev",
    "methods": {},
    "version": 1
  },
  "userdoc": {
    "kind": "user",
    "methods": {},
    "version": 1
  }
}